{"abi":[{"type":"constructor","inputs":[{"name":"_verifier","type":"address","internalType":"address"},{"name":"_mdlCityProgramVKey","type":"bytes32","internalType":"bytes32"}],"stateMutability":"nonpayable"},{"type":"function","name":"approve","inputs":[{"name":"to","type":"address","internalType":"address"},{"name":"tokenId","type":"uint256","internalType":"uint256"}],"outputs":[],"stateMutability":"pure"},{"type":"function","name":"balanceOf","inputs":[{"name":"owner","type":"address","internalType":"address"}],"outputs":[{"name":"","type":"uint256","internalType":"uint256"}],"stateMutability":"view"},{"type":"function","name":"cred","inputs":[{"name":"id","type":"uint256","internalType":"uint256"}],"outputs":[{"name":"","type":"tuple","internalType":"struct MDLCityVerifier.Cred","components":[{"name":"owner","type":"address","internalType":"address"},{"name":"locked","type":"bool","internalType":"bool"},{"name":"city","type":"string","internalType":"string"},{"name":"issuedAt","type":"uint256","internalType":"uint256"},{"name":"lockedAt","type":"uint256","internalType":"uint256"}]}],"stateMutability":"view"},{"type":"function","name":"credOfOwnerByIndex","inputs":[{"name":"owner","type":"address","internalType":"address"},{"name":"index","type":"uint256","internalType":"uint256"}],"outputs":[{"name":"","type":"tuple","internalType":"struct MDLCityVerifier.Cred","components":[{"name":"owner","type":"address","internalType":"address"},{"name":"locked","type":"bool","internalType":"bool"},{"name":"city","type":"string","internalType":"string"},{"name":"issuedAt","type":"uint256","internalType":"uint256"},{"name":"lockedAt","type":"uint256","internalType":"uint256"}]}],"stateMutability":"view"},{"type":"function","name":"getApproved","inputs":[{"name":"tokenId","type":"uint256","internalType":"uint256"}],"outputs":[{"name":"","type":"address","internalType":"address"}],"stateMutability":"pure"},{"type":"function","name":"isApprovedForAll","inputs":[{"name":"owner","type":"address","internalType":"address"},{"name":"operator","type":"address","internalType":"address"}],"outputs":[{"name":"","type":"bool","internalType":"bool"}],"stateMutability":"pure"},{"type":"function","name":"lockCred","inputs":[{"name":"_publicValues","type":"bytes","internalType":"bytes"},{"name":"_proofBytes","type":"bytes","internalType":"bytes"}],"outputs":[],"stateMutability":"nonpayable"},{"type":"function","name":"mdlCityProgramVKey","inputs":[],"outputs":[{"name":"","type":"bytes32","internalType":"bytes32"}],"stateMutability":"view"},{"type":"function","name":"name","inputs":[],"outputs":[{"name":"","type":"string","internalType":"string"}],"stateMutability":"view"},{"type":"function","name":"ownerCredIds","inputs":[{"name":"owner","type":"address","internalType":"address"}],"outputs":[{"name":"","type":"uint256[]","internalType":"uint256[]"}],"stateMutability":"view"},{"type":"function","name":"ownerOf","inputs":[{"name":"_tokenId","type":"uint256","internalType":"uint256"}],"outputs":[{"name":"","type":"address","internalType":"address"}],"stateMutability":"view"},{"type":"function","name":"safeTransferFrom","inputs":[{"name":"from","type":"address","internalType":"address"},{"name":"to","type":"address","internalType":"address"},{"name":"tokenId","type":"uint256","internalType":"uint256"}],"outputs":[],"stateMutability":"nonpayable"},{"type":"function","name":"safeTransferFrom","inputs":[{"name":"from","type":"address","internalType":"address"},{"name":"to","type":"address","internalType":"address"},{"name":"tokenId","type":"uint256","internalType":"uint256"},{"name":"data","type":"bytes","internalType":"bytes"}],"outputs":[],"stateMutability":"pure"},{"type":"function","name":"setApprovalForAll","inputs":[{"name":"operator","type":"address","internalType":"address"},{"name":"approved","type":"bool","internalType":"bool"}],"outputs":[],"stateMutability":"pure"},{"type":"function","name":"supportsInterface","inputs":[{"name":"interfaceId","type":"bytes4","internalType":"bytes4"}],"outputs":[{"name":"","type":"bool","internalType":"bool"}],"stateMutability":"view"},{"type":"function","name":"symbol","inputs":[],"outputs":[{"name":"","type":"string","internalType":"string"}],"stateMutability":"view"},{"type":"function","name":"tokenByIndex","inputs":[{"name":"index","type":"uint256","internalType":"uint256"}],"outputs":[{"name":"","type":"uint256","internalType":"uint256"}],"stateMutability":"view"},{"type":"function","name":"tokenOfOwnerByIndex","inputs":[{"name":"owner","type":"address","internalType":"address"},{"name":"index","type":"uint256","internalType":"uint256"}],"outputs":[{"name":"","type":"uint256","internalType":"uint256"}],"stateMutability":"view"},{"type":"function","name":"tokenURI","inputs":[{"name":"tokenId","type":"uint256","internalType":"uint256"}],"outputs":[{"name":"","type":"string","internalType":"string"}],"stateMutability":"view"},{"type":"function","name":"totalSupply","inputs":[],"outputs":[{"name":"","type":"uint256","internalType":"uint256"}],"stateMutability":"view"},{"type":"function","name":"transferFrom","inputs":[{"name":"from","type":"address","internalType":"address"},{"name":"to","type":"address","internalType":"address"},{"name":"tokenId","type":"uint256","internalType":"uint256"}],"outputs":[],"stateMutability":"pure"},{"type":"function","name":"unlockCred","inputs":[{"name":"id","type":"uint256","internalType":"uint256"}],"outputs":[],"stateMutability":"nonpayable"},{"type":"function","name":"updateCred","inputs":[{"name":"_publicValues","type":"bytes","internalType":"bytes"},{"name":"_proofBytes","type":"bytes","internalType":"bytes"}],"outputs":[],"stateMutability":"nonpayable"},{"type":"function","name":"verifier","inputs":[],"outputs":[{"name":"","type":"address","internalType":"address"}],"stateMutability":"view"},{"type":"event","name":"Approval","inputs":[{"name":"owner","type":"address","indexed":true,"internalType":"address"},{"name":"approved","type":"address","indexed":true,"internalType":"address"},{"name":"tokenId","type":"uint256","indexed":true,"internalType":"uint256"}],"anonymous":false},{"type":"event","name":"ApprovalForAll","inputs":[{"name":"owner","type":"address","indexed":true,"internalType":"address"},{"name":"operator","type":"address","indexed":true,"internalType":"address"},{"name":"approved","type":"bool","indexed":false,"internalType":"bool"}],"anonymous":false},{"type":"event","name":"Transfer","inputs":[{"name":"from","type":"address","indexed":true,"internalType":"address"},{"name":"to","type":"address","indexed":true,"internalType":"address"},{"name":"tokenId","type":"uint256","indexed":true,"internalType":"uint256"}],"anonymous":false},{"type":"error","name":"ERC721EnumerableForbiddenBatchMint","inputs":[]},{"type":"error","name":"ERC721IncorrectOwner","inputs":[{"name":"sender","type":"address","internalType":"address"},{"name":"tokenId","type":"uint256","internalType":"uint256"},{"name":"owner","type":"address","internalType":"address"}]},{"type":"error","name":"ERC721InsufficientApproval","inputs":[{"name":"operator","type":"address","internalType":"address"},{"name":"tokenId","type":"uint256","internalType":"uint256"}]},{"type":"error","name":"ERC721InvalidApprover","inputs":[{"name":"approver","type":"address","internalType":"address"}]},{"type":"error","name":"ERC721InvalidOperator","inputs":[{"name":"operator","type":"address","internalType":"address"}]},{"type":"error","name":"ERC721InvalidOwner","inputs":[{"name":"owner","type":"address","internalType":"address"}]},{"type":"error","name":"ERC721InvalidReceiver","inputs":[{"name":"receiver","type":"address","internalType":"address"}]},{"type":"error","name":"ERC721InvalidSender","inputs":[{"name":"sender","type":"address","internalType":"address"}]},{"type":"error","name":"ERC721NonexistentToken","inputs":[{"name":"tokenId","type":"uint256","internalType":"uint256"}]},{"type":"error","name":"ERC721OutOfBoundsIndex","inputs":[{"name":"owner","type":"address","internalType":"address"},{"name":"index","type":"uint256","internalType":"uint256"}]},{"type":"error","name":"ErrorBurningDisabled","inputs":[]},{"type":"error","name":"ErrorFunctionDisabled","inputs":[]}],"bytecode":{"object":"0x60c060405234801561001057600080fd5b50604051611e82380380611e8283398101604081905261002f916100b7565b6040518060400160405280601881526020017f43616c69666f726e6961206d444c204369747920437265640000000000000000815250604051806040016040528060048152602001636d444c4360e01b81525081600090816100919190610190565b50600161009e8282610190565b5050506001600160a01b0390911660805260a05261024e565b600080604083850312156100ca57600080fd5b82516001600160a01b03811681146100e157600080fd5b6020939093015192949293505050565b634e487b7160e01b600052604160045260246000fd5b600181811c9082168061011b57607f821691505b60208210810361013b57634e487b7160e01b600052602260045260246000fd5b50919050565b601f82111561018b57806000526020600020601f840160051c810160208510156101685750805b601f840160051c820191505b818110156101885760008155600101610174565b50505b505050565b81516001600160401b038111156101a9576101a96100f1565b6101bd816101b78454610107565b84610141565b6020601f8211600181146101f157600083156101d95750848201515b600019600385901b1c1916600184901b178455610188565b600084815260208120601f198516915b828110156102215787850151825560209485019460019092019101610201565b508482101561023f5786840151600019600387901b60f8161c191681555b50505050600190811b01905550565b60805160a051611bf361028f600039600081816102ff0152818161085a0152610dd60152600081816102120152818161082d0152610da90152611bf36000f3fe608060405234801561001057600080fd5b50600436106101585760003560e01c806370a08231116100c3578063b41238351161007c578063b41238351461032f578063b88d4fde14610342578063bf0b553614610350578063c87b56dd14610370578063e985e9c514610383578063f55ab2f41461039157600080fd5b806370a08231146102965780637da51987146102bf5780638a9fa5fb146102df57806395d89b41146102f25780639b8270ec146102fa578063a22cb4651461032157600080fd5b806323b872dd1161011557806323b872dd146101ff5780632b7ac3f31461020d5780632f745c591461023457806342842e0e146102475780634f6ccce71461025a5780636352211e1461026d57600080fd5b806301ffc9a71461015d57806306fdde0314610185578063081812fc1461019a578063095ea7b3146101c55780630ce79e48146101da57806318160ddd146101ed575b600080fd5b61017061016b3660046113f1565b6103a4565b60405190151581526020015b60405180910390f35b61018d6103cf565b60405161017c9190611461565b6101ad6101a8366004611474565b610461565b6040516001600160a01b03909116815260200161017c565b6101d86101d33660046114a9565b61047c565b005b6101d86101e836600461151c565b610495565b600a545b60405190815260200161017c565b6101d86101d336600461158d565b6101ad7f000000000000000000000000000000000000000000000000000000000000000081565b6101f16102423660046114a9565b6108f5565b6101d861025536600461158d565b61097c565b6101f1610268366004611474565b61099c565b6101ad61027b366004611474565b6000908152600c60205260409020546001600160a01b031690565b6101f16102a43660046115ca565b6001600160a01b03166000908152600b602052604090205490565b6102d26102cd366004611474565b6109e3565b60405161017c91906115e5565b6101d86102ed366004611474565b610ada565b61018d610b6f565b6101f17f000000000000000000000000000000000000000000000000000000000000000081565b6101d86101d336600461163f565b6101d861033d36600461151c565b610b7e565b6101d86101d3366004611734565b61036361035e3660046115ca565b610ff5565b60405161017c91906117b0565b61018d61037e366004611474565b611061565b6101706101a83660046117f3565b6102d261039f3660046114a9565b61108c565b60006001600160e01b0319821663780e9d6360e01b14806103c957506103c9826111bd565b92915050565b6060600080546103de90611826565b80601f016020809104026020016040519081016040528092919081815260200182805461040a90611826565b80156104575780601f1061042c57610100808354040283529160200191610457565b820191906000526020600020905b81548152906001019060200180831161043a57829003601f168201915b5050505050905090565b60006040516307feddf160e21b815260040160405180910390fd5b6040516307feddf160e21b815260040160405180910390fd5b60006104a384860186611860565b6020808201516000908152600c90915260409020549091506001600160a01b031633146105265760405162461bcd60e51b815260206004820152602660248201527f437265642063616e206f6e6c79206265206c6f636b656420627920697473206860448201526537b63232b91760d11b60648201526084015b60405180910390fd5b80516020808301516000908152600c90915260409020546001600160a01b039081169116146105aa5760405162461bcd60e51b815260206004820152602a60248201527f50726f6f66206f776e6572206d757374206d617463682063757272656e7420636044820152693932b21037bbb732b91760b11b606482015260840161051d565b8060400151600c600083602001518152602001908152602001600020600201540361063d5760405162461bcd60e51b815260206004820152603c60248201527f4c6f636b696e672070726f6f66206d757374206265206973737565642073657060448201527f61726174656c792066726f6d207570646174696e672070726f6f662e00000000606482015260840161051d565b6020808201516000908152600c909152604090206002015461066190610e10611923565b42106106c75760405162461bcd60e51b815260206004820152602f60248201527f43726564206d757374206265206c6f636b65642077697468696e20616e20686f60448201526e3ab91037b3103ab83230ba34b7339760891b606482015260840161051d565b610777600c60008360200151815260200190815260200160002060010180546106ef90611826565b80601f016020809104026020016040519081016040528092919081815260200182805461071b90611826565b80156107685780601f1061073d57610100808354040283529160200191610768565b820191906000526020600020905b81548152906001019060200180831161074b57829003601f168201915b5050505050826060015161120d565b6107c35760405162461bcd60e51b815260206004820152601b60248201527f4e6f74207375726520686f7720746861742068617070656e65642e0000000000604482015260640161051d565b60408101516107d490610e10611923565b42106107f25760405162461bcd60e51b815260040161051d90611936565b80604001514210156108165760405162461bcd60e51b815260040161051d9061197f565b60405163020a49e360e51b81526001600160a01b037f000000000000000000000000000000000000000000000000000000000000000016906341493c609061088a907f00000000000000000000000000000000000000000000000000000000000000009089908990899089906004016119ea565b60006040518083038186803b1580156108a257600080fd5b505afa1580156108b6573d6000803e3d6000fd5b505050602091820180516000908152600c9093526040808420805460ff60a01b1916600160a01b17905590518352909120426003909101555050505050565b6001600160a01b0382166000908152600b6020526040812054821061093f5760405163295f44f760e21b81526001600160a01b03841660048201526024810183905260440161051d565b6001600160a01b0383166000908152600b6020526040902080548390811061096957610969611a23565b9060005260206000200154905092915050565b6109978383836040518060200160405280600081525061047c565b505050565b60006109a7600a5490565b82106109d05760405163295f44f760e21b8152600060048201526024810183905260440161051d565b506000908152600d602052604090205490565b6109eb6113b7565b6000828152600c6020908152604091829020825160a08101845281546001600160a01b0381168252600160a01b900460ff161515928101929092526001810180549293919291840191610a3d90611826565b80601f0160208091040260200160405190810160405280929190818152602001828054610a6990611826565b8015610ab65780601f10610a8b57610100808354040283529160200191610ab6565b820191906000526020600020905b815481529060010190602001808311610a9957829003601f168201915b50505050508152602001600282015481526020016003820154815250509050919050565b6000818152600c60205260409020546001600160a01b03163314610b505760405162461bcd60e51b815260206004820152602760248201527f437265642063616e206f6e6c7920626520756e6c6f636b6564206279206974736044820152661037bbb732b91760c91b606482015260840161051d565b6000908152600c60205260408120805460ff60a01b1916815560030155565b6060600180546103de90611826565b6000610b8c84860186611860565b6020808201516000908152600c9091526040902060030154909150610bb49062eff100611923565b421115610bdb576020808201516000908152600c90915260409020805460ff60a01b191690555b6020818101516000908152600c9091526040902054600160a01b900460ff161580610c2257506020818101516000908152600c90915260409020546001600160a01b031633145b610ca75760405162461bcd60e51b815260206004820152604a60248201527f43726564206c6f636b65642c20756e6c6f636b206f722063616c6c207468697360448201527f2066756e6374696f6e20776974682074686520686f6c646572206f776e6572206064820152693a37903ab83230ba329760b11b608482015260a40161051d565b8060400151421015610ccb5760405162461bcd60e51b815260040161051d9061197f565b6040810151610cdc90610e10611923565b4210610cfa5760405162461bcd60e51b815260040161051d90611936565b6020808201516000908152600c9091526040902060020154610d1e90612a30611923565b4211610d925760405162461bcd60e51b815260206004820152603d60248201527f4372656420726561737369676e6d656e742068656176696c792072617465206c60448201527f696d697465642c2074727920616761696e20696e203320686f7572732e000000606482015260840161051d565b60405163020a49e360e51b81526001600160a01b037f000000000000000000000000000000000000000000000000000000000000000016906341493c6090610e06907f00000000000000000000000000000000000000000000000000000000000000009089908990899089906004016119ea565b60006040518083038186803b158015610e1e57600080fd5b505afa158015610e32573d6000803e3d6000fd5b505082516001600160a01b03169150610e60905057604051632e5a41f760e01b815260040160405180910390fd5b6020808201516000908152600c90915260409020546001600160a01b0316610eb057602080820151600a80546000908152600d9093526040832091909155805491610eaa83611a39565b91905055505b80516020808301516000908152600c90915260409020546001600160a01b03908116911614610fb157602080820180516000908152600c9092526040909120549051610f05916001600160a01b031690611234565b80516001600160a01b039081166000908152600b602090815260408083208286018051825460018101845592865284862090920191909155518551818552600c90935281842054915190949283169391909216917fddf252ad1be2c89b69c2b068fc378daa952ba7f163c4a11628f55a4df523b3ef9190a480516020808301516000908152600c9091526040902080546001600160a01b0319166001600160a01b039092169190911790555b604080820151602080840180516000908152600c909252838220600201929092556060840151915181529190912060010190610fed9082611aa0565b505050505050565b6001600160a01b0381166000908152600b602090815260409182902080548351818402810184019094528084526060939283018282801561105557602002820191906000526020600020905b815481526020019060010190808311611041575b50505050509050919050565b606061106c8261137e565b50604051806060016040528060358152602001611b896035913992915050565b6110946113b7565b6001600160a01b0383166000908152600b602052604081208054600c929190859081106110c3576110c3611a23565b600091825260208083209091015483528281019390935260409182019020815160a08101835281546001600160a01b038116825260ff600160a01b90910416151593810193909352600181018054919284019161111f90611826565b80601f016020809104026020016040519081016040528092919081815260200182805461114b90611826565b80156111985780601f1061116d57610100808354040283529160200191611198565b820191906000526020600020905b81548152906001019060200180831161117b57829003601f168201915b5050505050815260200160028201548152602001600382015481525050905092915050565b60006001600160e01b031982166380ac58cd60e01b14806111ee57506001600160e01b03198216635b5e139f60e01b145b806103c957506301ffc9a760e01b6001600160e01b03198316146103c9565b60008151835114801561122d575081805190602001208380519060200120145b9392505050565b600080805b6001600160a01b0385166000908152600b60205260409020548110156112aa576001600160a01b0385166000908152600b6020526040902080548591908390811061128657611286611a23565b9060005260206000200154036112a257809250600191506112aa565b600101611239565b50806112b65750505050565b6001600160a01b0384166000908152600b6020526040902080546112dc90600190611b5f565b815481106112ec576112ec611a23565b9060005260206000200154600b6000866001600160a01b03166001600160a01b03168152602001908152602001600020838154811061132d5761132d611a23565b60009182526020808320909101929092556001600160a01b0386168152600b9091526040902080548061136257611362611b72565b6001900381819060005260206000200160009055905550505050565b6000818152600c60205260408120546001600160a01b0316806103c957604051637e27328960e01b81526004810184905260240161051d565b6040518060a0016040528060006001600160a01b031681526020016000151581526020016060815260200160008152602001600081525090565b60006020828403121561140357600080fd5b81356001600160e01b03198116811461122d57600080fd5b6000815180845260005b8181101561144157602081850181015186830182015201611425565b506000602082860101526020601f19601f83011685010191505092915050565b60208152600061122d602083018461141b565b60006020828403121561148657600080fd5b5035919050565b80356001600160a01b03811681146114a457600080fd5b919050565b600080604083850312156114bc57600080fd5b6114c58361148d565b946020939093013593505050565b60008083601f8401126114e557600080fd5b50813567ffffffffffffffff8111156114fd57600080fd5b60208301915083602082850101111561151557600080fd5b9250929050565b6000806000806040858703121561153257600080fd5b843567ffffffffffffffff81111561154957600080fd5b611555878288016114d3565b909550935050602085013567ffffffffffffffff81111561157557600080fd5b611581878288016114d3565b95989497509550505050565b6000806000606084860312156115a257600080fd5b6115ab8461148d565b92506115b96020850161148d565b929592945050506040919091013590565b6000602082840312156115dc57600080fd5b61122d8261148d565b6020815260018060a01b0382511660208201526020820151151560408201526000604083015160a0606084015261161f60c084018261141b565b905060608401516080840152608084015160a08401528091505092915050565b6000806040838503121561165257600080fd5b61165b8361148d565b91506020830135801515811461167057600080fd5b809150509250929050565b634e487b7160e01b600052604160045260246000fd5b6040516080810167ffffffffffffffff811182821017156116b4576116b461167b565b60405290565b60008067ffffffffffffffff8411156116d5576116d561167b565b50604051601f19601f85018116603f0116810181811067ffffffffffffffff821117156117045761170461167b565b60405283815290508082840185101561171c57600080fd5b83836020830137600060208583010152509392505050565b6000806000806080858703121561174a57600080fd5b6117538561148d565b93506117616020860161148d565b925060408501359150606085013567ffffffffffffffff81111561178457600080fd5b8501601f8101871361179557600080fd5b6117a4878235602084016116ba565b91505092959194509250565b602080825282518282018190526000918401906040840190835b818110156117e85783518352602093840193909201916001016117ca565b509095945050505050565b6000806040838503121561180657600080fd5b61180f8361148d565b915061181d6020840161148d565b90509250929050565b600181811c9082168061183a57607f821691505b60208210810361185a57634e487b7160e01b600052602260045260246000fd5b50919050565b60006020828403121561187257600080fd5b813567ffffffffffffffff81111561188957600080fd5b82016080818503121561189b57600080fd5b6118a3611691565b6118ac8261148d565b81526020828101359082015260408083013590820152606082013567ffffffffffffffff8111156118dc57600080fd5b80830192505084601f8301126118f157600080fd5b611900858335602085016116ba565b6060820152949350505050565b634e487b7160e01b600052601160045260246000fd5b808201808211156103c9576103c961190d565b60208082526029908201527f43726564206d75737420626520697373756564206c657373207468616e2031206040820152683437bab91030b3b79760b91b606082015260800190565b60208082526022908201527f426c6f636b20736f6d65686f77206f6c646572207468616e2074686520637265604082015261643f60f01b606082015260800190565b81835281816020850137506000828201602090810191909152601f909101601f19169091010190565b858152606060208201526000611a046060830186886119c1565b8281036040840152611a178185876119c1565b98975050505050505050565b634e487b7160e01b600052603260045260246000fd5b600060018201611a4b57611a4b61190d565b5060010190565b601f82111561099757806000526020600020601f840160051c81016020851015611a795750805b601f840160051c820191505b81811015611a995760008155600101611a85565b5050505050565b815167ffffffffffffffff811115611aba57611aba61167b565b611ace81611ac88454611826565b84611a52565b6020601f821160018114611b025760008315611aea5750848201515b600019600385901b1c1916600184901b178455611a99565b600084815260208120601f198516915b82811015611b325787850151825560209485019460019092019101611b12565b5084821015611b505786840151600019600387901b60f8161c191681555b50505050600190811b01905550565b818103818111156103c9576103c961190d565b634e487b7160e01b600052603160045260246000fdfe697066733a2f2f516d62594a4534513751666f347762646f383942727457475a6a714a464659507150457a4c74704d6b7059474e70a26469706673582212209b44a3c837158c951343072f05d5c453aa69d1bca13f815f05c87d29105509a764736f6c634300081b0033","linkReferences":{}},"methodIdentifiers":{"approve(address,uint256)":"095ea7b3","balanceOf(address)":"70a08231","cred(uint256)":"7da51987","credOfOwnerByIndex(address,uint256)":"f55ab2f4","getApproved(uint256)":"081812fc","isApprovedForAll(address,address)":"e985e9c5","lockCred(bytes,bytes)":"0ce79e48","mdlCityProgramVKey()":"9b8270ec","name()":"06fdde03","ownerCredIds(address)":"bf0b5536","ownerOf(uint256)":"6352211e","safeTransferFrom(address,address,uint256)":"42842e0e","safeTransferFrom(address,address,uint256,bytes)":"b88d4fde","setApprovalForAll(address,bool)":"a22cb465","supportsInterface(bytes4)":"01ffc9a7","symbol()":"95d89b41","tokenByIndex(uint256)":"4f6ccce7","tokenOfOwnerByIndex(address,uint256)":"2f745c59","tokenURI(uint256)":"c87b56dd","totalSupply()":"18160ddd","transferFrom(address,address,uint256)":"23b872dd","unlockCred(uint256)":"8a9fa5fb","updateCred(bytes,bytes)":"b4123835","verifier()":"2b7ac3f3"},"id":44}